{
  "_format": "hh-sol-artifact-1",
  "contractName": "ModerateBilling",
  "sourceName": "contracts/ModerateBilling.sol",
  "abi": [
    {
      "inputs": [
        {
          "internalType": "contract IRealityETH",
          "name": "_reality",
          "type": "address"
        },
        {
          "internalType": "address",
          "name": "_arbitrator",
          "type": "address"
        }
      ],
      "stateMutability": "nonpayable",
      "type": "constructor"
    },
    {
      "anonymous": false,
      "inputs": [
        {
          "indexed": false,
          "internalType": "bytes32",
          "name": "id",
          "type": "bytes32"
        },
        {
          "indexed": false,
          "internalType": "string",
          "name": "rules",
          "type": "string"
        }
      ],
      "name": "ruleSet",
      "type": "event"
    },
    {
      "inputs": [
        {
          "internalType": "bytes32",
          "name": "",
          "type": "bytes32"
        }
      ],
      "name": "accounts",
      "outputs": [
        {
          "internalType": "address",
          "name": "",
          "type": "address"
        }
      ],
      "stateMutability": "view",
      "type": "function"
    },
    {
      "inputs": [],
      "name": "arbitrator",
      "outputs": [
        {
          "internalType": "address",
          "name": "",
          "type": "address"
        }
      ],
      "stateMutability": "view",
      "type": "function"
    },
    {
      "inputs": [
        {
          "internalType": "bytes32",
          "name": "groupId",
          "type": "bytes32"
        },
        {
          "internalType": "uint256",
          "name": "templateId",
          "type": "uint256"
        },
        {
          "internalType": "string",
          "name": "question",
          "type": "string"
        },
        {
          "internalType": "uint32",
          "name": "timeout",
          "type": "uint32"
        },
        {
          "internalType": "uint256",
          "name": "minBond",
          "type": "uint256"
        }
      ],
      "name": "ask",
      "outputs": [],
      "stateMutability": "nonpayable",
      "type": "function"
    },
    {
      "inputs": [
        {
          "internalType": "address",
          "name": "",
          "type": "address"
        }
      ],
      "name": "balance",
      "outputs": [
        {
          "internalType": "uint256",
          "name": "",
          "type": "uint256"
        }
      ],
      "stateMutability": "view",
      "type": "function"
    },
    {
      "inputs": [],
      "name": "fundAccount",
      "outputs": [],
      "stateMutability": "payable",
      "type": "function"
    },
    {
      "inputs": [
        {
          "internalType": "string",
          "name": "platform",
          "type": "string"
        },
        {
          "internalType": "string",
          "name": "groupId",
          "type": "string"
        }
      ],
      "name": "getId",
      "outputs": [
        {
          "internalType": "bytes32",
          "name": "",
          "type": "bytes32"
        }
      ],
      "stateMutability": "pure",
      "type": "function"
    },
    {
      "inputs": [
        {
          "internalType": "bytes32[]",
          "name": "questionIds",
          "type": "bytes32[]"
        }
      ],
      "name": "getQuestions",
      "outputs": [
        {
          "components": [
            {
              "internalType": "bytes32",
              "name": "content_hash",
              "type": "bytes32"
            },
            {
              "internalType": "address",
              "name": "arbitrator",
              "type": "address"
            },
            {
              "internalType": "uint32",
              "name": "opening_ts",
              "type": "uint32"
            },
            {
              "internalType": "uint32",
              "name": "timeout",
              "type": "uint32"
            },
            {
              "internalType": "uint32",
              "name": "finalize_ts",
              "type": "uint32"
            },
            {
              "internalType": "bool",
              "name": "is_pending_arbitration",
              "type": "bool"
            },
            {
              "internalType": "uint256",
              "name": "bounty",
              "type": "uint256"
            },
            {
              "internalType": "bytes32",
              "name": "best_answer",
              "type": "bytes32"
            },
            {
              "internalType": "bytes32",
              "name": "history_hash",
              "type": "bytes32"
            },
            {
              "internalType": "uint256",
              "name": "bond",
              "type": "uint256"
            },
            {
              "internalType": "uint256",
              "name": "min_bond",
              "type": "uint256"
            }
          ],
          "internalType": "struct ModerateBilling.Question[]",
          "name": "",
          "type": "tuple[]"
        }
      ],
      "stateMutability": "view",
      "type": "function"
    },
    {
      "inputs": [],
      "name": "owner",
      "outputs": [
        {
          "internalType": "address",
          "name": "",
          "type": "address"
        }
      ],
      "stateMutability": "view",
      "type": "function"
    },
    {
      "inputs": [],
      "name": "reality",
      "outputs": [
        {
          "internalType": "contract IRealityETH",
          "name": "",
          "type": "address"
        }
      ],
      "stateMutability": "view",
      "type": "function"
    },
    {
      "inputs": [
        {
          "internalType": "bytes32",
          "name": "groupId",
          "type": "bytes32"
        },
        {
          "internalType": "address",
          "name": "groupAccount",
          "type": "address"
        }
      ],
      "name": "registerGroup",
      "outputs": [],
      "stateMutability": "nonpayable",
      "type": "function"
    },
    {
      "inputs": [
        {
          "internalType": "bytes32",
          "name": "groupId",
          "type": "bytes32"
        },
        {
          "internalType": "string",
          "name": "rules",
          "type": "string"
        }
      ],
      "name": "setRules",
      "outputs": [],
      "stateMutability": "nonpayable",
      "type": "function"
    },
    {
      "inputs": [],
      "name": "withdraw",
      "outputs": [],
      "stateMutability": "nonpayable",
      "type": "function"
    }
  ],
  "bytecode": "0x60e06040523480156200001157600080fd5b5060405162001c3d38038062001c3d83398181016040528101906200003791906200018a565b3373ffffffffffffffffffffffffffffffffffffffff1660808173ffffffffffffffffffffffffffffffffffffffff16815250508173ffffffffffffffffffffffffffffffffffffffff1660a08173ffffffffffffffffffffffffffffffffffffffff16815250508073ffffffffffffffffffffffffffffffffffffffff1660c08173ffffffffffffffffffffffffffffffffffffffff16815250505050620001d1565b600080fd5b600073ffffffffffffffffffffffffffffffffffffffff82169050919050565b60006200010d82620000e0565b9050919050565b6000620001218262000100565b9050919050565b620001338162000114565b81146200013f57600080fd5b50565b600081519050620001538162000128565b92915050565b620001648162000100565b81146200017057600080fd5b50565b600081519050620001848162000159565b92915050565b60008060408385031215620001a457620001a3620000db565b5b6000620001b48582860162000142565b9250506020620001c78582860162000173565b9150509250929050565b60805160a05160c051611a126200022b600039600081816109350152610b860152600081816104d1015281816108f60152610c3a0152600081816102d6015281816106b2015281816108740152610be30152611a126000f3fe6080604052600436106100a75760003560e01c80637e0261c8116100645780637e0261c8146101a65780638da5cb5b146101e3578063bc529c431461020e578063be3ab83c1461024b578063d9a8748c14610276578063e3d670d714610280576100a7565b80630789c536146100ac57806312f78614146100d5578063202c005414610112578063210b60131461013b5780633ccfd60b146101645780636cc6cde11461017b575b600080fd5b3480156100b857600080fd5b506100d360048036038101906100ce9190610df7565b6102bd565b005b3480156100e157600080fd5b506100fc60048036038101906100f79190610e9c565b610462565b60405161010991906110eb565b60405180910390f35b34801561011e57600080fd5b5061013960048036038101906101349190611163565b610699565b005b34801561014757600080fd5b50610162600480360381019061015d919061121b565b61085b565b005b34801561017057600080fd5b50610179610ab1565b005b34801561018757600080fd5b50610190610b84565b60405161019d91906112c4565b60405180910390f35b3480156101b257600080fd5b506101cd60048036038101906101c891906112df565b610ba8565b6040516101da919061136f565b60405180910390f35b3480156101ef57600080fd5b506101f8610be1565b60405161020591906112c4565b60405180910390f35b34801561021a57600080fd5b506102356004803603810190610230919061138a565b610c05565b60405161024291906112c4565b60405180910390f35b34801561025757600080fd5b50610260610c38565b60405161026d9190611416565b60405180910390f35b61027e610c5c565b005b34801561028c57600080fd5b506102a760048036038101906102a29190611431565b610cb4565b6040516102b4919061146d565b60405180910390f35b3373ffffffffffffffffffffffffffffffffffffffff167f000000000000000000000000000000000000000000000000000000000000000073ffffffffffffffffffffffffffffffffffffffff161461034b576040517f08c379a0000000000000000000000000000000000000000000000000000000008152600401610342906114e5565b60405180910390fd5b8060005a601036020190508260008086815260200190815260200160002060006101000a81548173ffffffffffffffffffffffffffffffffffffffff021916908373ffffffffffffffffffffffffffffffffffffffff16021790555060003a6186605a846103b99190611534565b6103c39190611568565b6103cd91906115be565b905080600160008573ffffffffffffffffffffffffffffffffffffffff1673ffffffffffffffffffffffffffffffffffffffff168152602001908152602001600020600082825461041e9190611534565b925050819055503373ffffffffffffffffffffffffffffffffffffffff166108fc829081150290604051600060405180830381858888f19350505050505050505050565b6060600083839050905060008167ffffffffffffffff81111561048857610487611618565b5b6040519080825280602002602001820160405280156104c157816020015b6104ae610ccc565b8152602001906001900390816104a65790505b50905060005b8281101561068d577f000000000000000000000000000000000000000000000000000000000000000073ffffffffffffffffffffffffffffffffffffffff166395addb9087878481811061051e5761051d611647565b5b905060200201356040518263ffffffff1660e01b8152600401610541919061136f565b61016060405180830381865afa15801561055f573d6000803e3d6000fd5b505050506040513d601f19601f8201168201806040525081019061058391906116f6565b90919293949596979899509091929394959697985090919293509091509050508686815181106105b6576105b5611647565b5b60200260200101516040018787815181106105d4576105d3611647565b5b60200260200101516060018888815181106105f2576105f1611647565b5b60200260200101516080018989815181106106105761060f611647565b5b602002602001015160a0018a8a8151811061062e5761062d611647565b5b602002602001015160e0018581525085151515158152508563ffffffff1663ffffffff168152508563ffffffff1663ffffffff168152508563ffffffff1663ffffffff1681525050505050508080610685906117ea565b9150506104c7565b50809250505092915050565b3373ffffffffffffffffffffffffffffffffffffffff167f000000000000000000000000000000000000000000000000000000000000000073ffffffffffffffffffffffffffffffffffffffff1614610727576040517f08c379a000000000000000000000000000000000000000000000000000000000815260040161071e906114e5565b60405180910390fd5b8260005a601036020190507f94fa5d35851e37384b4deadc644b5720ee7fba9c04db6ddaac491e7ab2122b8485858560405161076593929190611880565b60405180910390a160003a618e945a8461077f9190611534565b6107899190611568565b61079391906115be565b9050806001600080600087815260200190815260200160002060009054906101000a900473ffffffffffffffffffffffffffffffffffffffff1673ffffffffffffffffffffffffffffffffffffffff1673ffffffffffffffffffffffffffffffffffffffff16815260200190815260200160002060008282546108169190611534565b925050819055503373ffffffffffffffffffffffffffffffffffffffff166108fc829081150290604051600060405180830381858888f1935050505050505050505050565b3373ffffffffffffffffffffffffffffffffffffffff167f000000000000000000000000000000000000000000000000000000000000000073ffffffffffffffffffffffffffffffffffffffff16146108e9576040517f08c379a00000000000000000000000000000000000000000000000000000000081526004016108e0906114e5565b60405180910390fd5b8560005a601036020190507f000000000000000000000000000000000000000000000000000000000000000073ffffffffffffffffffffffffffffffffffffffff1663484b93c48888887f0000000000000000000000000000000000000000000000000000000000000000894260008b6040518963ffffffff1660e01b815260040161097c9897969594939291906118fc565b6020604051808303816000875af115801561099b573d6000803e3d6000fd5b505050506040513d601f19601f820116820180604052508101906109bf9190611974565b5060003a618e945a846109d29190611534565b6109dc9190611568565b6109e691906115be565b9050806001600080600087815260200190815260200160002060009054906101000a900473ffffffffffffffffffffffffffffffffffffffff1673ffffffffffffffffffffffffffffffffffffffff1673ffffffffffffffffffffffffffffffffffffffff1681526020019081526020016000206000828254610a699190611534565b925050819055503373ffffffffffffffffffffffffffffffffffffffff166108fc829081150290604051600060405180830381858888f1935050505050505050505050505050565b6000600160003373ffffffffffffffffffffffffffffffffffffffff1673ffffffffffffffffffffffffffffffffffffffff1681526020019081526020016000205490506000600160003373ffffffffffffffffffffffffffffffffffffffff1673ffffffffffffffffffffffffffffffffffffffff168152602001908152602001600020819055503373ffffffffffffffffffffffffffffffffffffffff166108fc829081150290604051600060405180830381858888f19350505050158015610b80573d6000803e3d6000fd5b5050565b7f000000000000000000000000000000000000000000000000000000000000000081565b600084848484604051602001610bc194939291906119a1565b604051602081830303815290604052805190602001209050949350505050565b7f000000000000000000000000000000000000000000000000000000000000000081565b60006020528060005260406000206000915054906101000a900473ffffffffffffffffffffffffffffffffffffffff1681565b7f000000000000000000000000000000000000000000000000000000000000000081565b34600160003373ffffffffffffffffffffffffffffffffffffffff1673ffffffffffffffffffffffffffffffffffffffff1681526020019081526020016000206000828254610cab9190611568565b92505081905550565b60016020528060005260406000206000915090505481565b60405180610160016040528060008019168152602001600073ffffffffffffffffffffffffffffffffffffffff168152602001600063ffffffff168152602001600063ffffffff168152602001600063ffffffff16815260200160001515815260200160008152602001600080191681526020016000801916815260200160008152602001600081525090565b600080fd5b600080fd5b6000819050919050565b610d7681610d63565b8114610d8157600080fd5b50565b600081359050610d9381610d6d565b92915050565b600073ffffffffffffffffffffffffffffffffffffffff82169050919050565b6000610dc482610d99565b9050919050565b610dd481610db9565b8114610ddf57600080fd5b50565b600081359050610df181610dcb565b92915050565b60008060408385031215610e0e57610e0d610d59565b5b6000610e1c85828601610d84565b9250506020610e2d85828601610de2565b9150509250929050565b600080fd5b600080fd5b600080fd5b60008083601f840112610e5c57610e5b610e37565b5b8235905067ffffffffffffffff811115610e7957610e78610e3c565b5b602083019150836020820283011115610e9557610e94610e41565b5b9250929050565b60008060208385031215610eb357610eb2610d59565b5b600083013567ffffffffffffffff811115610ed157610ed0610d5e565b5b610edd85828601610e46565b92509250509250929050565b600081519050919050565b600082825260208201905092915050565b6000819050602082019050919050565b610f1e81610d63565b82525050565b610f2d81610db9565b82525050565b600063ffffffff82169050919050565b610f4c81610f33565b82525050565b60008115159050919050565b610f6781610f52565b82525050565b6000819050919050565b610f8081610f6d565b82525050565b61016082016000820151610f9d6000850182610f15565b506020820151610fb06020850182610f24565b506040820151610fc36040850182610f43565b506060820151610fd66060850182610f43565b506080820151610fe96080850182610f43565b5060a0820151610ffc60a0850182610f5e565b5060c082015161100f60c0850182610f77565b5060e082015161102260e0850182610f15565b50610100820151611037610100850182610f15565b5061012082015161104c610120850182610f77565b50610140820151611061610140850182610f77565b50505050565b60006110738383610f86565b6101608301905092915050565b6000602082019050919050565b600061109882610ee9565b6110a28185610ef4565b93506110ad83610f05565b8060005b838110156110de5781516110c58882611067565b97506110d083611080565b9250506001810190506110b1565b5085935050505092915050565b60006020820190508181036000830152611105818461108d565b905092915050565b60008083601f84011261112357611122610e37565b5b8235905067ffffffffffffffff8111156111405761113f610e3c565b5b60208301915083600182028301111561115c5761115b610e41565b5b9250929050565b60008060006040848603121561117c5761117b610d59565b5b600061118a86828701610d84565b935050602084013567ffffffffffffffff8111156111ab576111aa610d5e565b5b6111b78682870161110d565b92509250509250925092565b6111cc81610f6d565b81146111d757600080fd5b50565b6000813590506111e9816111c3565b92915050565b6111f881610f33565b811461120357600080fd5b50565b600081359050611215816111ef565b92915050565b60008060008060008060a0878903121561123857611237610d59565b5b600061124689828a01610d84565b965050602061125789828a016111da565b955050604087013567ffffffffffffffff81111561127857611277610d5e565b5b61128489828a0161110d565b9450945050606061129789828a01611206565b92505060806112a889828a016111da565b9150509295509295509295565b6112be81610db9565b82525050565b60006020820190506112d960008301846112b5565b92915050565b600080600080604085870312156112f9576112f8610d59565b5b600085013567ffffffffffffffff81111561131757611316610d5e565b5b6113238782880161110d565b9450945050602085013567ffffffffffffffff81111561134657611345610d5e565b5b6113528782880161110d565b925092505092959194509250565b61136981610d63565b82525050565b60006020820190506113846000830184611360565b92915050565b6000602082840312156113a05761139f610d59565b5b60006113ae84828501610d84565b91505092915050565b6000819050919050565b60006113dc6113d76113d284610d99565b6113b7565b610d99565b9050919050565b60006113ee826113c1565b9050919050565b6000611400826113e3565b9050919050565b611410816113f5565b82525050565b600060208201905061142b6000830184611407565b92915050565b60006020828403121561144757611446610d59565b5b600061145584828501610de2565b91505092915050565b61146781610f6d565b82525050565b6000602082019050611482600083018461145e565b92915050565b600082825260208201905092915050565b7f416363657373206e6f7420616c6c6f7765643a204f776e6572206f6e6c792e00600082015250565b60006114cf601f83611488565b91506114da82611499565b602082019050919050565b600060208201905081810360008301526114fe816114c2565b9050919050565b7f4e487b7100000000000000000000000000000000000000000000000000000000600052601160045260246000fd5b600061153f82610f6d565b915061154a83610f6d565b92508282101561155d5761155c611505565b5b828203905092915050565b600061157382610f6d565b915061157e83610f6d565b9250827fffffffffffffffffffffffffffffffffffffffffffffffffffffffffffffffff038211156115b3576115b2611505565b5b828201905092915050565b60006115c982610f6d565b91506115d483610f6d565b9250817fffffffffffffffffffffffffffffffffffffffffffffffffffffffffffffffff048311821515161561160d5761160c611505565b5b828202905092915050565b7f4e487b7100000000000000000000000000000000000000000000000000000000600052604160045260246000fd5b7f4e487b7100000000000000000000000000000000000000000000000000000000600052603260045260246000fd5b60008151905061168581610d6d565b92915050565b60008151905061169a81610dcb565b92915050565b6000815190506116af816111ef565b92915050565b6116be81610f52565b81146116c957600080fd5b50565b6000815190506116db816116b5565b92915050565b6000815190506116f0816111c3565b92915050565b60008060008060008060008060008060006101608c8e03121561171c5761171b610d59565b5b600061172a8e828f01611676565b9b5050602061173b8e828f0161168b565b9a5050604061174c8e828f016116a0565b995050606061175d8e828f016116a0565b985050608061176e8e828f016116a0565b97505060a061177f8e828f016116cc565b96505060c06117908e828f016116e1565b95505060e06117a18e828f01611676565b9450506101006117b38e828f01611676565b9350506101206117c58e828f016116e1565b9250506101406117d78e828f016116e1565b9150509295989b509295989b9093969950565b60006117f582610f6d565b91507fffffffffffffffffffffffffffffffffffffffffffffffffffffffffffffffff82141561182857611827611505565b5b600182019050919050565b82818337600083830152505050565b6000601f19601f8301169050919050565b600061185f8385611488565b935061186c838584611833565b61187583611842565b840190509392505050565b60006040820190506118956000830186611360565b81810360208301526118a8818486611853565b9050949350505050565b6118bb81610f33565b82525050565b6000819050919050565b60006118e66118e16118dc846118c1565b6113b7565b610f6d565b9050919050565b6118f6816118cb565b82525050565b600060e082019050611911600083018b61145e565b818103602083015261192481898b611853565b905061193360408301886112b5565b61194060608301876118b2565b61194d60808301866118b2565b61195a60a08301856118ed565b61196760c083018461145e565b9998505050505050505050565b60006020828403121561198a57611989610d59565b5b600061199884828501611676565b91505092915050565b600060408201905081810360008301526119bc818688611853565b905081810360208301526119d1818486611853565b90509594505050505056fea26469706673582212207bdfe54f787706a958e5d1dc9de6d09a143e291d8a34e51a2bda39e9d6b0853564736f6c634300080a0033",
  "linkReferences": {},
  "deployedLinkReferences": {}
}