{
  "contractName": "Realitio_v2_0_ArbitratorWithAppeals",
  "abi": [
    {
      "inputs": [
        {
          "internalType": "address",
          "name": "_realitio",
          "type": "address"
        },
        {
          "internalType": "string",
          "name": "_metadata",
          "type": "string"
        },
        {
          "internalType": "contract IArbitrator",
          "name": "_arbitrator",
          "type": "address"
        },
        {
          "internalType": "bytes",
          "name": "_arbitratorExtraData",
          "type": "bytes"
        }
      ],
      "stateMutability": "nonpayable",
      "type": "constructor"
    },
    {
      "anonymous": false,
      "inputs": [
        {
          "indexed": true,
          "internalType": "uint256",
          "name": "_localDisputeID",
          "type": "uint256"
        },
        {
          "indexed": true,
          "internalType": "uint256",
          "name": "_round",
          "type": "uint256"
        },
        {
          "indexed": false,
          "internalType": "uint256",
          "name": "ruling",
          "type": "uint256"
        },
        {
          "indexed": true,
          "internalType": "address",
          "name": "_contributor",
          "type": "address"
        },
        {
          "indexed": false,
          "internalType": "uint256",
          "name": "_amount",
          "type": "uint256"
        }
      ],
      "name": "Contribution",
      "type": "event"
    },
    {
      "anonymous": false,
      "inputs": [
        {
          "indexed": true,
          "internalType": "contract IArbitrator",
          "name": "_arbitrator",
          "type": "address"
        },
        {
          "indexed": true,
          "internalType": "uint256",
          "name": "_disputeID",
          "type": "uint256"
        },
        {
          "indexed": false,
          "internalType": "uint256",
          "name": "_metaEvidenceID",
          "type": "uint256"
        },
        {
          "indexed": false,
          "internalType": "uint256",
          "name": "_evidenceGroupID",
          "type": "uint256"
        }
      ],
      "name": "Dispute",
      "type": "event"
    },
    {
      "anonymous": false,
      "inputs": [
        {
          "indexed": true,
          "internalType": "uint256",
          "name": "_disputeID",
          "type": "uint256"
        },
        {
          "indexed": false,
          "internalType": "bytes32",
          "name": "_questionID",
          "type": "bytes32"
        }
      ],
      "name": "DisputeIDToQuestionID",
      "type": "event"
    },
    {
      "anonymous": false,
      "inputs": [
        {
          "indexed": true,
          "internalType": "contract IArbitrator",
          "name": "_arbitrator",
          "type": "address"
        },
        {
          "indexed": true,
          "internalType": "uint256",
          "name": "_evidenceGroupID",
          "type": "uint256"
        },
        {
          "indexed": true,
          "internalType": "address",
          "name": "_party",
          "type": "address"
        },
        {
          "indexed": false,
          "internalType": "string",
          "name": "_evidence",
          "type": "string"
        }
      ],
      "name": "Evidence",
      "type": "event"
    },
    {
      "anonymous": false,
      "inputs": [
        {
          "indexed": true,
          "internalType": "uint256",
          "name": "_metaEvidenceID",
          "type": "uint256"
        },
        {
          "indexed": false,
          "internalType": "string",
          "name": "_evidence",
          "type": "string"
        }
      ],
      "name": "MetaEvidence",
      "type": "event"
    },
    {
      "anonymous": false,
      "inputs": [
        {
          "indexed": true,
          "internalType": "contract IArbitrator",
          "name": "_arbitrator",
          "type": "address"
        },
        {
          "indexed": true,
          "internalType": "uint256",
          "name": "_disputeID",
          "type": "uint256"
        },
        {
          "indexed": false,
          "internalType": "uint256",
          "name": "_ruling",
          "type": "uint256"
        }
      ],
      "name": "Ruling",
      "type": "event"
    },
    {
      "anonymous": false,
      "inputs": [
        {
          "indexed": true,
          "internalType": "uint256",
          "name": "_localDisputeID",
          "type": "uint256"
        },
        {
          "indexed": true,
          "internalType": "uint256",
          "name": "_round",
          "type": "uint256"
        },
        {
          "indexed": true,
          "internalType": "uint256",
          "name": "_ruling",
          "type": "uint256"
        }
      ],
      "name": "RulingFunded",
      "type": "event"
    },
    {
      "anonymous": false,
      "inputs": [
        {
          "indexed": true,
          "internalType": "uint256",
          "name": "_localDisputeID",
          "type": "uint256"
        },
        {
          "indexed": true,
          "internalType": "uint256",
          "name": "_round",
          "type": "uint256"
        },
        {
          "indexed": false,
          "internalType": "uint256",
          "name": "_ruling",
          "type": "uint256"
        },
        {
          "indexed": true,
          "internalType": "address",
          "name": "_contributor",
          "type": "address"
        },
        {
          "indexed": false,
          "internalType": "uint256",
          "name": "_reward",
          "type": "uint256"
        }
      ],
      "name": "Withdrawal",
      "type": "event"
    },
    {
      "inputs": [],
      "name": "MULTIPLIER_DENOMINATOR",
      "outputs": [
        {
          "internalType": "uint256",
          "name": "",
          "type": "uint256"
        }
      ],
      "stateMutability": "view",
      "type": "function"
    },
    {
      "inputs": [],
      "name": "VERSION",
      "outputs": [
        {
          "internalType": "string",
          "name": "",
          "type": "string"
        }
      ],
      "stateMutability": "view",
      "type": "function"
    },
    {
      "inputs": [
        {
          "internalType": "uint256",
          "name": "",
          "type": "uint256"
        }
      ],
      "name": "arbitrationRequests",
      "outputs": [
        {
          "internalType": "enum RealitioArbitratorWithAppealsBase.Status",
          "name": "status",
          "type": "uint8"
        },
        {
          "internalType": "address",
          "name": "disputer",
          "type": "address"
        },
        {
          "internalType": "uint256",
          "name": "disputeID",
          "type": "uint256"
        },
        {
          "internalType": "uint256",
          "name": "answer",
          "type": "uint256"
        }
      ],
      "stateMutability": "view",
      "type": "function"
    },
    {
      "inputs": [],
      "name": "arbitrator",
      "outputs": [
        {
          "internalType": "contract IArbitrator",
          "name": "",
          "type": "address"
        }
      ],
      "stateMutability": "view",
      "type": "function"
    },
    {
      "inputs": [],
      "name": "arbitratorExtraData",
      "outputs": [
        {
          "internalType": "bytes",
          "name": "",
          "type": "bytes"
        }
      ],
      "stateMutability": "view",
      "type": "function"
    },
    {
      "inputs": [
        {
          "internalType": "address",
          "name": "_governor",
          "type": "address"
        }
      ],
      "name": "changeGovernor",
      "outputs": [],
      "stateMutability": "nonpayable",
      "type": "function"
    },
    {
      "inputs": [
        {
          "internalType": "string",
          "name": "_metaEvidence",
          "type": "string"
        }
      ],
      "name": "changeMetaEvidence",
      "outputs": [],
      "stateMutability": "nonpayable",
      "type": "function"
    },
    {
      "inputs": [
        {
          "internalType": "uint256",
          "name": "_winnerStakeMultiplier",
          "type": "uint256"
        },
        {
          "internalType": "uint256",
          "name": "_loserStakeMultiplier",
          "type": "uint256"
        },
        {
          "internalType": "uint256",
          "name": "_loserAppealPeriodMultiplier",
          "type": "uint256"
        }
      ],
      "name": "changeMultipliers",
      "outputs": [],
      "stateMutability": "nonpayable",
      "type": "function"
    },
    {
      "inputs": [
        {
          "internalType": "uint256",
          "name": "",
          "type": "uint256"
        }
      ],
      "name": "externalIDtoLocalID",
      "outputs": [
        {
          "internalType": "uint256",
          "name": "",
          "type": "uint256"
        }
      ],
      "stateMutability": "view",
      "type": "function"
    },
    {
      "inputs": [
        {
          "internalType": "uint256",
          "name": "_questionID",
          "type": "uint256"
        },
        {
          "internalType": "uint256",
          "name": "_ruling",
          "type": "uint256"
        }
      ],
      "name": "fundAppeal",
      "outputs": [
        {
          "internalType": "bool",
          "name": "fullyFunded",
          "type": "bool"
        }
      ],
      "stateMutability": "payable",
      "type": "function"
    },
    {
      "inputs": [
        {
          "internalType": "bytes32",
          "name": "",
          "type": "bytes32"
        }
      ],
      "name": "getDisputeFee",
      "outputs": [
        {
          "internalType": "uint256",
          "name": "fee",
          "type": "uint256"
        }
      ],
      "stateMutability": "view",
      "type": "function"
    },
    {
      "inputs": [],
      "name": "getMultipliers",
      "outputs": [
        {
          "internalType": "uint256",
          "name": "_winnerStakeMultiplier",
          "type": "uint256"
        },
        {
          "internalType": "uint256",
          "name": "_loserStakeMultiplier",
          "type": "uint256"
        },
        {
          "internalType": "uint256",
          "name": "_loserAppealPeriodMultiplier",
          "type": "uint256"
        },
        {
          "internalType": "uint256",
          "name": "_denominator",
          "type": "uint256"
        }
      ],
      "stateMutability": "view",
      "type": "function"
    },
    {
      "inputs": [
        {
          "internalType": "uint256",
          "name": "_questionID",
          "type": "uint256"
        },
        {
          "internalType": "address payable",
          "name": "_contributor",
          "type": "address"
        },
        {
          "internalType": "uint256[]",
          "name": "_contributedTo",
          "type": "uint256[]"
        }
      ],
      "name": "getTotalWithdrawableAmount",
      "outputs": [
        {
          "internalType": "uint256",
          "name": "sum",
          "type": "uint256"
        }
      ],
      "stateMutability": "view",
      "type": "function"
    },
    {
      "inputs": [],
      "name": "governor",
      "outputs": [
        {
          "internalType": "address",
          "name": "",
          "type": "address"
        }
      ],
      "stateMutability": "view",
      "type": "function"
    },
    {
      "inputs": [],
      "name": "loserAppealPeriodMultiplier",
      "outputs": [
        {
          "internalType": "uint256",
          "name": "",
          "type": "uint256"
        }
      ],
      "stateMutability": "view",
      "type": "function"
    },
    {
      "inputs": [],
      "name": "loserStakeMultiplier",
      "outputs": [
        {
          "internalType": "uint256",
          "name": "",
          "type": "uint256"
        }
      ],
      "stateMutability": "view",
      "type": "function"
    },
    {
      "inputs": [],
      "name": "metaEvidenceUpdates",
      "outputs": [
        {
          "internalType": "uint256",
          "name": "",
          "type": "uint256"
        }
      ],
      "stateMutability": "view",
      "type": "function"
    },
    {
      "inputs": [],
      "name": "metadata",
      "outputs": [
        {
          "internalType": "string",
          "name": "",
          "type": "string"
        }
      ],
      "stateMutability": "view",
      "type": "function"
    },
    {
      "inputs": [
        {
          "internalType": "uint256",
          "name": "",
          "type": "uint256"
        }
      ],
      "name": "numberOfRulingOptions",
      "outputs": [
        {
          "internalType": "uint256",
          "name": "count",
          "type": "uint256"
        }
      ],
      "stateMutability": "pure",
      "type": "function"
    },
    {
      "inputs": [],
      "name": "realitio",
      "outputs": [
        {
          "internalType": "address",
          "name": "",
          "type": "address"
        }
      ],
      "stateMutability": "view",
      "type": "function"
    },
    {
      "inputs": [
        {
          "internalType": "bytes32",
          "name": "_questionID",
          "type": "bytes32"
        },
        {
          "internalType": "uint256",
          "name": "_maxPrevious",
          "type": "uint256"
        }
      ],
      "name": "requestArbitration",
      "outputs": [
        {
          "internalType": "uint256",
          "name": "disputeID",
          "type": "uint256"
        }
      ],
      "stateMutability": "payable",
      "type": "function"
    },
    {
      "inputs": [
        {
          "internalType": "uint256",
          "name": "_disputeID",
          "type": "uint256"
        },
        {
          "internalType": "uint256",
          "name": "_ruling",
          "type": "uint256"
        }
      ],
      "name": "rule",
      "outputs": [],
      "stateMutability": "nonpayable",
      "type": "function"
    },
    {
      "inputs": [
        {
          "internalType": "uint256",
          "name": "_questionID",
          "type": "uint256"
        },
        {
          "internalType": "string",
          "name": "_evidenceURI",
          "type": "string"
        }
      ],
      "name": "submitEvidence",
      "outputs": [],
      "stateMutability": "nonpayable",
      "type": "function"
    },
    {
      "inputs": [],
      "name": "winnerStakeMultiplier",
      "outputs": [
        {
          "internalType": "uint256",
          "name": "",
          "type": "uint256"
        }
      ],
      "stateMutability": "view",
      "type": "function"
    },
    {
      "inputs": [
        {
          "internalType": "uint256",
          "name": "_questionID",
          "type": "uint256"
        },
        {
          "internalType": "address payable",
          "name": "_contributor",
          "type": "address"
        },
        {
          "internalType": "uint256",
          "name": "_roundNumber",
          "type": "uint256"
        },
        {
          "internalType": "uint256",
          "name": "_ruling",
          "type": "uint256"
        }
      ],
      "name": "withdrawFeesAndRewards",
      "outputs": [
        {
          "internalType": "uint256",
          "name": "amount",
          "type": "uint256"
        }
      ],
      "stateMutability": "nonpayable",
      "type": "function"
    },
    {
      "inputs": [
        {
          "internalType": "uint256",
          "name": "_questionID",
          "type": "uint256"
        },
        {
          "internalType": "address payable",
          "name": "_contributor",
          "type": "address"
        },
        {
          "internalType": "uint256[]",
          "name": "_contributedTo",
          "type": "uint256[]"
        }
      ],
      "name": "withdrawFeesAndRewardsForAllRounds",
      "outputs": [],
      "stateMutability": "nonpayable",
      "type": "function"
    },
    {
      "inputs": [
        {
          "internalType": "uint256",
          "name": "_questionID",
          "type": "uint256"
        },
        {
          "internalType": "address payable",
          "name": "_contributor",
          "type": "address"
        },
        {
          "internalType": "uint256",
          "name": "_roundNumber",
          "type": "uint256"
        },
        {
          "internalType": "uint256[]",
          "name": "_contributedTo",
          "type": "uint256[]"
        }
      ],
      "name": "withdrawFeesAndRewardsForMultipleRulings",
      "outputs": [],
      "stateMutability": "nonpayable",
      "type": "function"
    },
    {
      "inputs": [
        {
          "internalType": "bytes32",
          "name": "_questionID",
          "type": "bytes32"
        },
        {
          "internalType": "bytes32",
          "name": "_lastHistoryHash",
          "type": "bytes32"
        },
        {
          "internalType": "bytes32",
          "name": "_lastAnswerOrCommitmentID",
          "type": "bytes32"
        },
        {
          "internalType": "uint256",
          "name": "_lastBond",
          "type": "uint256"
        },
        {
          "internalType": "address",
          "name": "_lastAnswerer",
          "type": "address"
        },
        {
          "internalType": "bool",
          "name": "_isCommitment",
          "type": "bool"
        }
      ],
      "name": "computeWinnerAndReportAnswer",
      "outputs": [],
      "stateMutability": "nonpayable",
      "type": "function"
    }
  ],
  "bytecode": "0x60c060405260018054600160a060020a03191633179055610bb8600455611b586005556113886006553480156200003557600080fd5b5060405162002ffe38038062002ffe83398101604081905262000058916200020c565b6c01000000000000000000000000600160a060020a038516026080528251849084908490849062000091906002906020860190620000d2565b506c01000000000000000000000000600160a060020a0383160260a0528051620000c3906000906020840190620000d2565b505050505050505050620002e2565b828054600181600116156101000203166002900490600052602060002090601f0160209004810192826200010a576000855562000155565b82601f106200012557805160ff191683800117855562000155565b8280016001018555821562000155579182015b828111156200015557825182559160200191906001019062000138565b506200016392915062000167565b5090565b5b8082111562000163576000815560010162000168565b60006001604060020a03808411156200019357fe5b6040516020601f8601601f1916820181018381118382101715620001b357fe5b8060405250819350858252868686011115620001ce57600080fd5b600092505b85831015620001f0578483015182840182015291820191620001d3565b85831115620002025760008187840101525b5050509392505050565b6000806000806080858703121562000222578384fd5b84516200022f81620002c9565b60208601519094506001604060020a03808211156200024c578485fd5b818701915087601f83011262000260578485fd5b62000271888351602085016200017e565b9450604087015191506200028582620002c9565b6060870151919350808211156200029a578283fd5b508501601f81018713620002ac578182fd5b620002bd878251602084016200017e565b91505092959194509250565b600160a060020a0381168114620002df57600080fd5b50565b6080516c01000000000000000000000000900460a0516c010000000000000000000000009004612c926200036c6000398061065d5280610b5b5280610e605280610f5b52806110cf52806111c5528061130c52806113d152806114825280611c305280611e025250806115e9528061168552806117f452806118f05280611ef35250612c926000f3fe6080604052600436106101d4576000357c0100000000000000000000000000000000000000000000000000000000900480637b94338311610109578063bc8802a2116100a7578063d35c82cb11610081578063d35c82cb146104b0578063e4c0aaf4146104d0578063fe6ca782146104f0578063ffa1ad7414610505576101d4565b8063bc8802a21461045b578063c21ae06114610470578063c25516e914610490576101d4565b806390765279116100e357806390765279146103e8578063a22352e214610408578063a6a7f0eb14610428578063a829c3d114610448576101d4565b80637b9433831461039357806385632b12146103a85780638d8b2d7e146103c8576101d4565b8063392f37e911610176578063631eabd511610150578063631eabd5146103145780636cc6cde1146103445780636cdc090f1461035957806379873f8a1461036e576101d4565b8063392f37e9146102bf5780634658eb01146102d45780634b2f0ea0146102f4576101d4565b80630e274e4c116101b25780630e274e4c146102485780631d5120851461026a578063311a6c561461027f578063362c34791461029f576101d4565b80630c139eb4146101d95780630c340a24146102045780630c7ac7b614610226575b600080fd5b3480156101e557600080fd5b506101ee61051a565b6040516101fb919061265e565b60405180910390f35b34801561021057600080fd5b50610219610520565b6040516101fb9190612632565b34801561023257600080fd5b5061023b61053c565b6040516101fb91906126bf565b34801561025457600080fd5b506102686102633660046122e6565b6105e8565b005b34801561027657600080fd5b506101ee610622565b34801561028b57600080fd5b5061026861029a366004612285565b610628565b3480156102ab57600080fd5b506101ee6102ba36600461239e565b61084f565b3480156102cb57600080fd5b5061023b61098e565b3480156102e057600080fd5b506102686102ef366004612447565b610a04565b610307610302366004612285565b610a63565b6040516101fb9190612653565b34801561032057600080fd5b5061033461032f3660046121f8565b610f18565b6040516101fb94939291906126e5565b34801561035057600080fd5b50610219610f59565b34801561036557600080fd5b506101ee610f7d565b34801561037a57600080fd5b50610383610f83565b6040516101fb9493929190612c02565b34801561039f57600080fd5b506101ee610f95565b3480156103b457600080fd5b506102686103c336600461233d565b610f9b565b3480156103d457600080fd5b506101ee6103e33660046121f8565b610fd0565b3480156103f457600080fd5b506102686104033660046122a6565b610ff5565b34801561041457600080fd5b506101ee6104233660046121f8565b61108f565b34801561043457600080fd5b506102686104433660046123da565b611154565b6101ee610456366004612285565b611239565b34801561046757600080fd5b50610219611683565b34801561047c57600080fd5b506101ee61048b3660046121f8565b6116a7565b34801561049c57600080fd5b506101ee6104ab3660046122e6565b6116b9565b3480156104bc57600080fd5b506102686104cb366004612228565b61176c565b3480156104dc57600080fd5b506102686104eb3660046121dc565b6119b8565b3480156104fc57600080fd5b506101ee611a50565b34801561051157600080fd5b5061023b611a56565b60065481565b60015473ffffffffffffffffffffffffffffffffffffffff1681565b6000805460408051602060026001851615610100027fffffffffffffffffffffffffffffffffffffffffffffffffffffffffffffffff0190941693909304601f810184900484028201840190925281815292918301828280156105e05780601f106105b5576101008083540402835291602001916105e0565b820191906000526020600020905b8154815290600101906020018083116105c357829003601f168201915b505050505081565b6000838152600760205260408120600381015490915b8181101561061a5761061286868387610f9b565b6001016105fe565b505050505050565b60055481565b60008281526008602090815260408083205480845260079092529091203373ffffffffffffffffffffffffffffffffffffffff7f000000000000000000000000000000000000000000000000000000000000000016146106bd576040517f08c379a00000000000000000000000000000000000000000000000000000000081526004016106b4906127cf565b60405180910390fd5b7ffffffffffffffffffffffffffffffffffffffffffffffffffffffffffffffffe831115610717576040517f08c379a00000000000000000000000000000000000000000000000000000000081526004016106b4906128e6565b6001815460ff16600381111561072957fe5b14610760576040517f08c379a00000000000000000000000000000000000000000000000000000000081526004016106b490612ba4565b600381018054600091907fffffffffffffffffffffffffffffffffffffffffffffffffffffffffffffffff810190811061079657fe5b90600052602060002090600502019050600081600401805490506001146107bd57846107d9565b816004016000815481106107cd57fe5b90600052602060002001545b600284810182905584547fffffffffffffffffffffffffffffffffffffffffffffffffffffffffffffff0016178455604051909150869033907f394027a5fa6e098a1191094d1719d6929b9abc535fcc0c8f448d6a4e756222769061083f90859061265e565b60405180910390a3505050505050565b60008481526007602052604081206003810180548391908690811061087057fe5b6000918252602090912060059091020190506001825460ff16600381111561089457fe5b116108cb576040517f08c379a00000000000000000000000000000000000000000000000000000000081526004016106b4906129c2565b6108db8187868560020154611a8f565b925082156109845773ffffffffffffffffffffffffffffffffffffffff8616600081815260028301602090815260408083208884529091528082208290555185156108fc0291869190818181858888f19350505050508573ffffffffffffffffffffffffffffffffffffffff1685887f54b3cab3cb5c4aca3209db1151caff092e878011202e43a36782d4ebe0b963ae878760405161097b929190612bf4565b60405180910390a45b5050949350505050565b600280546040805160206001841615610100027fffffffffffffffffffffffffffffffffffffffffffffffffffffffffffffffff01909316849004601f810184900484028201840190925281815292918301828280156105e05780601f106105b5576101008083540402835291602001916105e0565b60015473ffffffffffffffffffffffffffffffffffffffff163314610a55576040517f08c379a00000000000000000000000000000000000000000000000000000000081526004016106b490612954565b600492909255600555600655565b60007ffffffffffffffffffffffffffffffffffffffffffffffffffffffffffffffffe821115610abf576040517f08c379a00000000000000000000000000000000000000000000000000000000081526004016106b49061298b565b600083815260076020526040902060018082015490825460ff166003811115610ae457fe5b14610b1b576040517f08c379a00000000000000000000000000000000000000000000000000000000081526004016106b4906129f9565b6040517f1c3db16d00000000000000000000000000000000000000000000000000000000815260009073ffffffffffffffffffffffffffffffffffffffff7f00000000000000000000000000000000000000000000000000000000000000001690631c3db16d90610b9090859060040161265e565b60206040518083038186803b158015610ba857600080fd5b505afa158015610bbc573d6000803e3d6000fd5b505050506040513d601f19601f82011682018060405250810190610be09190612210565b9050610bed828683611c2b565b600080610bfb848885611da7565b6003870180549294509092507fffffffffffffffffffffffffffffffffffffffffffffffffffffffffffffffff8201916000919083908110610c3957fe5b600091825260208083208c84526001600590930201918201905260409091205490915060ff1615610c96576040517f08c379a00000000000000000000000000000000000000000000000000000000081526004016106b490612a67565b6000898152602082905260408120543490610cb2908690611eba565b11610cd65760008a815260208390526040902054610cd1908590611eba565b610cd8565b345b90503373ffffffffffffffffffffffffffffffffffffffff16838c7fcae597f39a3ad75c2e10d46b031f023c5c2babcd58ca0491b122acda3968d4c08d85604051610d24929190612bf4565b60405180910390a433600090815260028301602090815260408083208d8452825280832080548501905590849052902080548201908190558411610df55760008a81526020838152604080832054600386018054909101905560048501805460018181018355918552838520018e90558d845280860190925280832080547fffffffffffffffffffffffffffffffffffffffffffffffffffffffffffffff0016909217909155518b9185918e917f39493c1b78d9a13bcc9e1d532fc7faed3889248d93affa811416ce3c6bcb1a6891a45b600482015460021415610ecd57600380890180546001018155600052820154610e1e9086611eba565b60038301556040517f49912f8800000000000000000000000000000000000000000000000000000000815273ffffffffffffffffffffffffffffffffffffffff7f000000000000000000000000000000000000000000000000000000000000000016906349912f88908790610e9a908b90600090600401612bdb565b6000604051808303818588803b158015610eb357600080fd5b505af1158015610ec7573d6000803e3d6000fd5b50505050505b336108fc610edb3484611eba565b6040518115909202916000818181858888f150505060008c81526001909401602052505060409091205460ff169750505050505050505b92915050565b60076020526000908152604090208054600182015460029092015460ff82169261010090920473ffffffffffffffffffffffffffffffffffffffff16919084565b7f000000000000000000000000000000000000000000000000000000000000000081565b60035481565b60045460055460065461271090919293565b60045481565b805160005b8181101561061a57610fc7868686868581518110610fba57fe5b602002602001015161084f565b50600101610fa0565b507ffffffffffffffffffffffffffffffffffffffffffffffffffffffffffffffffe90565b60015473ffffffffffffffffffffffffffffffffffffffff163314611046576040517f08c379a00000000000000000000000000000000000000000000000000000000081526004016106b490612954565b6003547f61606860eb6c87306811e2695215385101daab53bd6ab4e9f9049aead9363c7d838360405161107a929190612725565b60405180910390a25050600380546001019055565b6040517ff7434ea900000000000000000000000000000000000000000000000000000000815260009073ffffffffffffffffffffffffffffffffffffffff7f0000000000000000000000000000000000000000000000000000000000000000169063f7434ea9906111049084906004016126d2565b60206040518083038186803b15801561111c57600080fd5b505afa158015611130573d6000803e3d6000fd5b505050506040513d601f19601f82011682018060405250810190610f129190612210565b60008381526007602052604090206002815460ff16600381111561117457fe5b106111ab576040517f08c379a00000000000000000000000000000000000000000000000000000000081526004016106b490612ac4565b3373ffffffffffffffffffffffffffffffffffffffff16847f000000000000000000000000000000000000000000000000000000000000000073ffffffffffffffffffffffffffffffffffffffff167fdccf2f8b2cc26eafcd61905cba744cff4b81d14740725f6376390dc6298a6a3c868660405161122b929190612725565b60405180910390a450505050565b60008060035411611276576040517f08c379a00000000000000000000000000000000000000000000000000000000081526004016106b490612a30565b600083815260076020526040812090815460ff16600381111561129557fe5b146112cc576040517f08c379a00000000000000000000000000000000000000000000000000000000081526004016106b4906128af565b6040517ff7434ea900000000000000000000000000000000000000000000000000000000815260009073ffffffffffffffffffffffffffffffffffffffff7f0000000000000000000000000000000000000000000000000000000000000000169063f7434ea9906113419084906004016126d2565b60206040518083038186803b15801561135957600080fd5b505afa15801561136d573d6000803e3d6000fd5b505050506040513d601f19601f820116820180604052508101906113919190612210565b6040517fc13517e100000000000000000000000000000000000000000000000000000000815290915073ffffffffffffffffffffffffffffffffffffffff7f0000000000000000000000000000000000000000000000000000000000000000169063c13517e190839061142b907ffffffffffffffffffffffffffffffffffffffffffffffffffffffffffffffffe90600090600401612bdb565b6020604051808303818588803b15801561144457600080fd5b505af1158015611458573d6000803e3d6000fd5b50505050506040513d601f19601f8201168201806040525081019061147d9190612210565b9250827f000000000000000000000000000000000000000000000000000000000000000073ffffffffffffffffffffffffffffffffffffffff167f74baab670a4015ab2f1b467c5252a96141a2573f2908e58a92081e80d3cfde3d60016003540388600190046040516114f1929190612bf4565b60405180910390a3827fcbb827f06aed2dd1e157f8e6b29f32604bc4e88360964014c4d4ad259f8d3fa886604051611529919061265e565b60405180910390a2600083815260086020526040808220879055835460017fffffffffffffffffffffff0000000000000000000000000000000000000000ff909116336101008102919091177fffffffffffffffffffffffffffffffffffffffffffffffffffffffffffffff00168217865581860187905560038601805490920182559252517ff6a94ecb00000000000000000000000000000000000000000000000000000000815273ffffffffffffffffffffffffffffffffffffffff7f0000000000000000000000000000000000000000000000000000000000000000169163f6a94ecb916116209189918990600401612667565b600060405180830381600087803b15801561163a57600080fd5b505af115801561164e573d6000803e3d6000fd5b503392506108fc915061166390503484611eba565b6040518115909202916000818181858888f1935050505050505092915050565b7f000000000000000000000000000000000000000000000000000000000000000081565b60086020526000908152604090205481565b60008381526007602052604081206002815460ff1660038111156116d957fe5b10156116e9576000915050611765565b6003810154600282015460005b8281101561176057600084600301828154811061170f57fe5b9060005260206000209060050201905060005b87518110156117565761174a828a8a848151811061173c57fe5b602002602001015187611a8f565b90960195600101611722565b50506001016116f6565b505050505b9392505050565b60008681526007602052604090206002815460ff16600381111561178c57fe5b146117c3576040517f08c379a00000000000000000000000000000000000000000000000000000000081526004016106b49061291d565b85858585856040516020016117dc9594939291906125c6565b604051602081830303815290604052805190602001207f000000000000000000000000000000000000000000000000000000000000000073ffffffffffffffffffffffffffffffffffffffff166382ffa9f7896040518263ffffffff167c0100000000000000000000000000000000000000000000000000000000028152600401611867919061265e565b60206040518083038186803b15801561187f57600080fd5b505afa158015611893573d6000803e3d6000fd5b505050506040513d601f19601f820116820180604052508101906118b79190612210565b146118ee576040517f08c379a00000000000000000000000000000000000000000000000000000000081526004016106b490612806565b7f000000000000000000000000000000000000000000000000000000000000000073ffffffffffffffffffffffffffffffffffffffff1663fe92049d886001846002015403600102611943858a8a8a8a611ed5565b6040518463ffffffff167c010000000000000000000000000000000000000000000000000000000002815260040161197d93929190612693565b600060405180830381600087803b15801561199757600080fd5b505af11580156119ab573d6000803e3d6000fd5b5050505050505050505050565b60015473ffffffffffffffffffffffffffffffffffffffff163314611a09576040517f08c379a00000000000000000000000000000000000000000000000000000000081526004016106b490612954565b600180547fffffffffffffffffffffffff00000000000000000000000000000000000000001673ffffffffffffffffffffffffffffffffffffffff92909216919091179055565b61271081565b6040518060400160405280600581526020017f312e302e3000000000000000000000000000000000000000000000000000000081525081565b600082815260018501602052604081205460ff16611ae0575073ffffffffffffffffffffffffffffffffffffffff831660009081526002850160209081526040808320858452909152902054611c23565b81831415611b5357600083815260208690526040902054611b02576000611b4c565b60008381526020868152604080832054600389015473ffffffffffffffffffffffffffffffffffffffff8916855260028a0184528285208886529093529220540281611b4a57fe5b045b9050611c23565b6004850154600111801590611b795750600082815260018601602052604090205460ff16155b15611c235784600001600086600401600181548110611b9457fe5b906000526020600020015481526020019081526020016000205485600001600087600401600081548110611bc457fe5b6000918252602080832090910154835282810193909352604091820181205460038a015473ffffffffffffffffffffffffffffffffffffffff8a16835260028b018552838320898452909452919020549201910281611c1f57fe5b0490505b949350505050565b6000807f000000000000000000000000000000000000000000000000000000000000000073ffffffffffffffffffffffffffffffffffffffff1663afe15cfb866040518263ffffffff167c0100000000000000000000000000000000000000000000000000000000028152600401611ca3919061265e565b604080518083038186803b158015611cba57600080fd5b505afa158015611cce573d6000803e3d6000fd5b505050506040513d601f19601f82011682018060405250810190611cf29190612424565b9150915083831415611d4857814210158015611d0d57508042105b611d43576040517f08c379a00000000000000000000000000000000000000000000000000000000081526004016106b490612772565b611da0565b814210158015611d6a57506127106006548383030281611d6457fe5b04820142105b611da0576040517f08c379a00000000000000000000000000000000000000000000000000000000081526004016106b490612772565b5050505050565b600080600083851415611dbd5750600454611dc2565b506005545b6040517ff23f16e600000000000000000000000000000000000000000000000000000000815260009073ffffffffffffffffffffffffffffffffffffffff7f0000000000000000000000000000000000000000000000000000000000000000169063f23f16e690611e39908a908590600401612bdb565b60206040518083038186803b158015611e5157600080fd5b505afa158015611e65573d6000803e3d6000fd5b505050506040513d601f19601f82011682018060405250810190611e899190612210565b905080611eac612710611e9c838661208e565b81611ea357fe5b849190046120d6565b935093505050935093915050565b600082821115611ecc57506000610f12565b50808203610f12565b6000808085611ee657506000612028565b83156120215760008060007f000000000000000000000000000000000000000000000000000000000000000073ffffffffffffffffffffffffffffffffffffffff1663839df9458b6040518263ffffffff167c0100000000000000000000000000000000000000000000000000000000028152600401611f66919061265e565b60606040518083038186803b158015611f7e57600080fd5b505afa158015611f92573d6000803e3d6000fd5b505050506040513d601f19601f82011682018060405250810190611fb69190612472565b9250925092508115611fce5780945060019350612019565b4263ffffffff168363ffffffff161115612014576040517f08c379a00000000000000000000000000000000000000000000000000000000081526004016106b490612b21565b600093505b505050612028565b5085905060015b80801561205a575060028801547fffffffffffffffffffffffffffffffffffffffffffffffffffffffffffffffff0182145b612080578754610100900473ffffffffffffffffffffffffffffffffffffffff16612082565b845b98975050505050505050565b60008261209d57506000610f12565b828202828482816120aa57fe5b0414611765577fffffffffffffffffffffffffffffffffffffffffffffffffffffffffffffffff611c23565b600082820183811015611765577fffffffffffffffffffffffffffffffffffffffffffffffffffffffffffffffff611c23565b600082601f830112612119578081fd5b8135602067ffffffffffffffff8083111561213057fe5b8183026040518382820101818110848211171561214957fe5b60405284815283810192508684018288018501891015612167578687fd5b8692505b8583101561218957803584529284019260019290920191840161216b565b50979650505050505050565b60008083601f8401126121a6578182fd5b50813567ffffffffffffffff8111156121bd578182fd5b6020830191508360208285010111156121d557600080fd5b9250929050565b6000602082840312156121ed578081fd5b813561176581612c29565b600060208284031215612209578081fd5b5035919050565b600060208284031215612221578081fd5b5051919050565b60008060008060008060c08789031215612240578182fd5b86359550602087013594506040870135935060608701359250608087013561226781612c29565b915060a087013561227781612c4e565b809150509295509295509295565b60008060408385031215612297578182fd5b50508035926020909101359150565b600080602083850312156122b8578182fd5b823567ffffffffffffffff8111156122ce578283fd5b6122da85828601612195565b90969095509350505050565b6000806000606084860312156122fa578283fd5b83359250602084013561230c81612c29565b9150604084013567ffffffffffffffff811115612327578182fd5b61233386828701612109565b9150509250925092565b60008060008060808587031215612352578384fd5b84359350602085013561236481612c29565b925060408501359150606085013567ffffffffffffffff811115612386578182fd5b61239287828801612109565b91505092959194509250565b600080600080608085870312156123b3578384fd5b8435935060208501356123c581612c29565b93969395505050506040820135916060013590565b6000806000604084860312156123ee578081fd5b83359250602084013567ffffffffffffffff81111561240b578182fd5b61241786828701612195565b9497909650939450505050565b60008060408385031215612436578182fd5b505080516020909101519092909150565b60008060006060848603121561245b578081fd5b505081359360208301359350604090920135919050565b600080600060608486031215612486578081fd5b835163ffffffff81168114612499578182fd5b60208501519093506124aa81612c4e565b80925050604084015190509250925092565b60008151808452815b818110156124e1576020818501810151868301820152016124c5565b818111156124f25782602083870101525b50601f017fffffffffffffffffffffffffffffffffffffffffffffffffffffffffffffffe0169290920160200192915050565b60008154600180821660008114612543576001811461257f576125bd565b607f600284041686527fffffffffffffffffffffffffffffffffffffffffffffffffffffffffffffff00831660208701526040860193506125bd565b6002830480875261258f86612c1d565b60005b828110156125b35781546020828b0101528482019150602081019050612592565b8801602001955050505b50505092915050565b9485526020850193909352604084019190915273ffffffffffffffffffffffffffffffffffffffff166c0100000000000000000000000002606083015215157f010000000000000000000000000000000000000000000000000000000000000002607482015260750190565b73ffffffffffffffffffffffffffffffffffffffff91909116815260200190565b901515815260200190565b90815260200190565b92835273ffffffffffffffffffffffffffffffffffffffff919091166020830152604082015260600190565b928352602083019190915273ffffffffffffffffffffffffffffffffffffffff16604082015260600190565b60006020825261176560208301846124bc565b6000602082526117656020830184612525565b60808101600486106126f357fe5b94815273ffffffffffffffffffffffffffffffffffffffff939093166020840152604083019190915260609091015290565b60006020825282602083015282846040840137818301604090810191909152601f9092017fffffffffffffffffffffffffffffffffffffffffffffffffffffffffffffffe0160101919050565b6020808252602e908201527f46756e64696e67206d757374206265206d6164652077697468696e207468652060408201527f61707065616c20706572696f642e000000000000000000000000000000000000606082015260800190565b60208082526017908201527f4f6e6c792061726269747261746f7220616c6c6f776564000000000000000000604082015260600190565b60208082526063908201527f5468652068617368206f662074686520686973746f727920706172616d65746560408201527f727320737570706c69656420646f6573206e6f74206d6174636820746865206f60608201527f6e652073746f72656420696e20746865205265616c6974696f20636f6e74726160808201527f63742e000000000000000000000000000000000000000000000000000000000060a082015260c00190565b6020808252601d908201527f4172626974726174696f6e20616c726561647920726571756573746564000000604082015260600190565b6020808252600e908201527f496e76616c69642072756c696e67000000000000000000000000000000000000604082015260600190565b6020808252601b908201527f546865207374617475732073686f756c642062652052756c65642e0000000000604082015260600190565b6020808252601f908201527f4f6e6c7920676f7665726e6f722063616e206578656375746520746869732e00604082015260600190565b60208082526017908201527f416e73776572206973206f7574206f6620626f756e6473000000000000000000604082015260600190565b60208082526017908201527f5468657265206973206e6f2072756c696e67207965742e000000000000000000604082015260600190565b60208082526015908201527f4e6f206469737075746520746f2061707065616c2e0000000000000000000000604082015260600190565b6020808252601d908201527f5468657265206973206e6f206d65746165766964656e6365207965742e000000604082015260600190565b60208082526021908201527f41707065616c206665652068617320616c7265616479206265656e207061696460408201527f2e00000000000000000000000000000000000000000000000000000000000000606082015260800190565b6020808252602d908201527f43616e6e6f74207375626d69742065766964656e636520746f2061207265736f60408201527f6c76656420646973707574652e00000000000000000000000000000000000000606082015260800190565b60208082526059908201527f4172626974726174696f6e2063616e6e6f7420626520646f6e6520756e74696c60408201527f20746865206c61737420616e73776572657220686173206861642074696d652060608201527f746f2072657665616c2069747320636f6d6d69746d656e742e00000000000000608082015260a00190565b6020808252601a908201527f496e76616c6964206172626974726174696f6e20737461747573000000000000604082015260600190565b600083825260406020830152611c236040830184612525565b918252602082015260400190565b93845260208401929092526040830152606082015260800190565b60009081526020902090565b73ffffffffffffffffffffffffffffffffffffffff81168114612c4b57600080fd5b50565b8015158114612c4b57600080fdfea2646970667358221220220d236403aac69a52fca3d3ad14fedbd77a9983cf9144d0542dfc1083b5148c64736f6c63430007060033",
  "immutableReferences": {
    "56": [
      {
        "length": 32,
        "start": 5609
      },
      {
        "length": 32,
        "start": 5765
      },
      {
        "length": 32,
        "start": 6132
      },
      {
        "length": 32,
        "start": 6384
      },
      {
        "length": 32,
        "start": 7923
      }
    ],
    "58": [
      {
        "length": 32,
        "start": 1629
      },
      {
        "length": 32,
        "start": 2907
      },
      {
        "length": 32,
        "start": 3680
      },
      {
        "length": 32,
        "start": 3931
      },
      {
        "length": 32,
        "start": 4303
      },
      {
        "length": 32,
        "start": 4549
      },
      {
        "length": 32,
        "start": 4876
      },
      {
        "length": 32,
        "start": 5073
      },
      {
        "length": 32,
        "start": 5250
      },
      {
        "length": 32,
        "start": 7216
      },
      {
        "length": 32,
        "start": 7682
      }
    ]
  },
  "source": "// SPDX-License-Identifier: MIT\n\n/**\n *  @authors: [@ferittuncer]\n *  @reviewers: [@unknownunknown1*, @hbarcelos*, @MerlinEgalite*]\n *  @auditors: []\n *  @bounties: []\n *  @deployments: []\n */\n\npragma solidity ^0.7.0;\npragma abicoder v2;\n\nimport \"./IRealitio_v2_0.sol\";\nimport \"../RealitioArbitratorWithAppealsBase.sol\";\n\n/**\n *  @title Realitio_v2_0_ArbitratorWithAppeals\n *  @dev A Realitio arbitrator implementation that uses Realitio v2.0 and Kleros. It notifies Realitio contract for arbitration requests and creates corresponding dispute on Kleros. Transmits Kleros ruling to Realitio contract. Maintains crowdfunded appeals and notifies Kleros contract. Provides a function to submit evidence for Kleros dispute.\n *  There is a conversion between Kleros ruling and Realitio answer and there is a need for shifting by 1. This is because ruling 0 in Kleros signals tie or no-ruling but in Realitio 0 is a valid answer. For reviewers this should be a focus as it's quite easy to get confused. Any mistakes on this conversion will render this contract useless.\n *  NOTE: This contract trusts the Kleros arbitrator and Realitio.\n */\ncontract Realitio_v2_0_ArbitratorWithAppeals is RealitioArbitratorWithAppealsBase {\n    /** @dev Constructor.\n     *  @param _realitio The address of the Realitio contract.\n     *  @param _metadata The metadata required for RealitioArbitrator.\n     *  @param _arbitrator The address of the ERC792 arbitrator.\n     *  @param _arbitratorExtraData The extra data used to raise a dispute in the ERC792 arbitrator.\n     */\n    constructor(\n        address _realitio,\n        string memory _metadata,\n        IArbitrator _arbitrator,\n        bytes memory _arbitratorExtraData\n    ) RealitioArbitratorWithAppealsBase(_realitio, _metadata, _arbitrator, _arbitratorExtraData) {}\n\n    /** @dev Compute winner and report the answer to a specified question from the ERC792 arbitrator to the Realitio v2.0 contract. TRUSTED.\n     *  @param _questionID The ID of the question.\n     *  @param _lastHistoryHash The history hash given with the last answer to the question in the Realitio contract.\n     *  @param _lastAnswerOrCommitmentID The last answer given, or its commitment ID if it was a commitment, to the question in the Realitio contract.\n     *  @param _lastBond The bond paid for the last answer to the question in the Realitio contract.\n     *  @param _lastAnswerer The last answerer to the question in the Realitio contract.\n     *  @param _isCommitment Whether the last answer to the question in the Realitio contract used commit or reveal or not. True if it did, false otherwise.\n     */\n    function computeWinnerAndReportAnswer(\n        bytes32 _questionID,\n        bytes32 _lastHistoryHash,\n        bytes32 _lastAnswerOrCommitmentID,\n        uint256 _lastBond,\n        address _lastAnswerer,\n        bool _isCommitment\n    ) external {\n        ArbitrationRequest storage arbitrationRequest = arbitrationRequests[uint256(_questionID)];\n        require(arbitrationRequest.status == Status.Ruled, \"The status should be Ruled.\");\n        require(IRealitio_v2_0(realitio).getHistoryHash(_questionID) == keccak256(abi.encodePacked(_lastHistoryHash, _lastAnswerOrCommitmentID, _lastBond, _lastAnswerer, _isCommitment)), \"The hash of the history parameters supplied does not match the one stored in the Realitio contract.\"); // This is normally Realitio's responsibility to check but it does not, so we do instead. This is fixed in v2.1.\n\n        IRealitio_v2_0(realitio).submitAnswerByArbitrator(_questionID, bytes32(arbitrationRequest.answer - 1), computeWinner(arbitrationRequest, _lastAnswerOrCommitmentID, _lastBond, _lastAnswerer, _isCommitment));\n    }\n\n    /** @dev Computes the Realitio answerer, of a specified question, that should win. This function is needed to avoid the \"stack too deep error\". TRUSTED.\n     *  @param _arbitrationRequest Arbitration request to compute it's winner.\n     *  @param _lastAnswerOrCommitmentID The last answer given, or its commitment ID if it was a commitment, to the question in the Realitio contract.\n     *  @param _lastBond The bond paid for the last answer to the question in the Realitio contract.\n     *  @param _lastAnswerer The last answerer to the question in the Realitio contract.\n     *  @param _isCommitment Whether the last answer to the question in the Realitio contract used commit or reveal or not. True if it did, false otherwise.\n     *  @return winner The computed winner.\n     */\n    function computeWinner(\n        ArbitrationRequest storage _arbitrationRequest,\n        bytes32 _lastAnswerOrCommitmentID,\n        uint256 _lastBond,\n        address _lastAnswerer,\n        bool _isCommitment\n    ) internal view returns (address winner) {\n        bytes32 lastAnswer;\n        bool isAnswered;\n        if (_lastBond == 0) {\n            // If the question hasn't been answered, nobody is ever right.\n            isAnswered = false;\n        } else if (_isCommitment) {\n            (uint32 revealTS, bool isRevealed, bytes32 revealedAnswer) = IRealitio_v2_0(realitio).commitments(_lastAnswerOrCommitmentID);\n            if (isRevealed) {\n                lastAnswer = revealedAnswer;\n                isAnswered = true;\n            } else {\n                require(revealTS <= uint32(block.timestamp), \"Arbitration cannot be done until the last answerer has had time to reveal its commitment.\");\n                isAnswered = false;\n            }\n        } else {\n            lastAnswer = _lastAnswerOrCommitmentID;\n            isAnswered = true;\n        }\n\n        return isAnswered && lastAnswer == bytes32(_arbitrationRequest.answer - 1) ? _lastAnswerer : _arbitrationRequest.disputer;\n    }\n}\n",
  "sourcePath": "/home/f/repos/realitio-arbitrator-with-appeals/contracts/v2.0/Realitio_v2_0_ArbitratorWithAppeals.sol",
  "compiler": {
    "name": "solc",
    "version": "0.7.6+commit.7338295f.Emscripten.clang"
  },
  "schemaVersion": "3.4.0",
  "updatedAt": "2021-05-24T04:56:06.516Z",
  "devdoc": {
    "details": "A Realitio arbitrator implementation that uses Realitio v2.0 and Kleros. It notifies Realitio contract for arbitration requests and creates corresponding dispute on Kleros. Transmits Kleros ruling to Realitio contract. Maintains crowdfunded appeals and notifies Kleros contract. Provides a function to submit evidence for Kleros dispute.  There is a conversion between Kleros ruling and Realitio answer and there is a need for shifting by 1. This is because ruling 0 in Kleros signals tie or no-ruling but in Realitio 0 is a valid answer. For reviewers this should be a focus as it's quite easy to get confused. Any mistakes on this conversion will render this contract useless.  NOTE: This contract trusts the Kleros arbitrator and Realitio.",
    "kind": "dev",
    "methods": {
      "changeGovernor(address)": {
        "params": {
          "_governor": "The address of the new governor."
        }
      },
      "changeMetaEvidence(string)": {
        "details": "Updates the meta evidence used for disputes. This function needs to be executed at least once before requesting arbitration, because we don't emit MetaEvidence during construction.",
        "params": {
          "_metaEvidence": "URI to the new meta evidence file."
        }
      },
      "changeMultipliers(uint256,uint256,uint256)": {
        "details": "Changes the proportion of appeal fees that must be paid by winner and loser and changes the appeal period portion for losers.",
        "params": {
          "_loserAppealPeriodMultiplier": "The new loser appeal period multiplier respect to DENOMINATOR.",
          "_loserStakeMultiplier": "The new loser stake multiplier value respect to DENOMINATOR.",
          "_winnerStakeMultiplier": "The new winner stake multiplier value respect to DENOMINATOR."
        }
      },
      "computeWinnerAndReportAnswer(bytes32,bytes32,bytes32,uint256,address,bool)": {
        "details": "Compute winner and report the answer to a specified question from the ERC792 arbitrator to the Realitio v2.0 contract. TRUSTED.",
        "params": {
          "_isCommitment": "Whether the last answer to the question in the Realitio contract used commit or reveal or not. True if it did, false otherwise.",
          "_lastAnswerOrCommitmentID": "The last answer given, or its commitment ID if it was a commitment, to the question in the Realitio contract.",
          "_lastAnswerer": "The last answerer to the question in the Realitio contract.",
          "_lastBond": "The bond paid for the last answer to the question in the Realitio contract.",
          "_lastHistoryHash": "The history hash given with the last answer to the question in the Realitio contract.",
          "_questionID": "The ID of the question."
        }
      },
      "constructor": {
        "details": "Constructor.",
        "params": {
          "_arbitrator": "The address of the ERC792 arbitrator.",
          "_arbitratorExtraData": "The extra data used to raise a dispute in the ERC792 arbitrator.",
          "_metadata": "The metadata required for RealitioArbitrator.",
          "_realitio": "The address of the Realitio contract."
        }
      },
      "fundAppeal(uint256,uint256)": {
        "details": "TRUSTED. Manages crowdfunded appeals contributions and calls appeal function of the Kleros arbitrator to appeal a dispute. Note that we dont need to check that msg.value is enough to pay arbitration fees as its the responsibility of the arbitrator contract.",
        "params": {
          "_questionID": "Identifier of the Realitio question, casted to uint. This also serves as the local identifier in this contract.",
          "_ruling": "The ruling option to which the caller wants to contribute to."
        },
        "returns": {
          "fullyFunded": "True if the ruling option got fully funded as a result of this contribution."
        }
      },
      "getDisputeFee(bytes32)": {
        "details": "Returns arbitration fee by calling arbitrationCost function in the arbitrator contract.",
        "returns": {
          "fee": "Arbitration that needs to be paid."
        }
      },
      "getMultipliers()": {
        "details": "Calculate history has for givenReturns multipliers for appeals.",
        "returns": {
          "_denominator": "Multiplier denominator in basis points. Required for achieving floating-point-like behavior.",
          "_loserAppealPeriodMultiplier": "Losers appeal period multiplier. The loser is given less time to fund its appeal to defend against last minute appeal funding attacks.",
          "_loserStakeMultiplier": "Losers stake multiplier.",
          "_winnerStakeMultiplier": "Winners stake multiplier."
        }
      },
      "getTotalWithdrawableAmount(uint256,address,uint256[])": {
        "details": "Returns the sum of withdrawable amount.",
        "params": {
          "_contributedTo": "Ruling options to look for potential withdrawals.",
          "_contributor": "The contributor for which to query.",
          "_questionID": "Identifier of the Realitio question, casted to uint. This also serves as the local identifier in this contract."
        },
        "returns": {
          "sum": "The total amount available to withdraw."
        }
      },
      "numberOfRulingOptions(uint256)": {
        "details": "Returns number of possible ruling options. Valid rulings are [0, count].",
        "returns": {
          "count": "The number of ruling options."
        }
      },
      "requestArbitration(bytes32,uint256)": {
        "details": "Request arbitration from Kleros for given _questionID.",
        "params": {
          "_maxPrevious": "If specified, reverts if a bond higher than this was submitted after you sent your transaction.",
          "_questionID": "The question identifier in Realitio contract."
        },
        "returns": {
          "disputeID": "ID of the resulting dispute on arbitrator."
        }
      },
      "rule(uint256,uint256)": {
        "details": "Receives ruling from Kleros and enforces it.",
        "params": {
          "_disputeID": "ID of Kleros dispute.",
          "_ruling": "Ruling that is given by Kleros. This needs to be converted to Realitio answer before reporting the answer by shifting by 1."
        }
      },
      "submitEvidence(uint256,string)": {
        "details": "Allows to submit evidence for a given dispute.",
        "params": {
          "_evidenceURI": "Link to evidence.",
          "_questionID": "Realitio question identifier."
        }
      },
      "withdrawFeesAndRewards(uint256,address,uint256,uint256)": {
        "details": "Allows to withdraw any reimbursable fees or rewards after the dispute gets solved.",
        "params": {
          "_contributor": "The address whose rewards to withdraw.",
          "_questionID": "Identifier of the Realitio question, casted to uint. This also serves as the local identifier in this contract.",
          "_roundNumber": "The number of the round caller wants to withdraw from.",
          "_ruling": "Ruling that received contribution from contributor."
        },
        "returns": {
          "amount": "The amount available to withdraw for given question, contributor, round number and ruling option."
        }
      },
      "withdrawFeesAndRewardsForAllRounds(uint256,address,uint256[])": {
        "details": "Allows to withdraw any rewards or reimbursable fees after the dispute gets resolved. For multiple rulings options and for all rounds at once.  This function has O(m*n) time complexity where m is number of rounds and n is the number of ruling options contributed by given user.  It is safe to assume m is always less than 10 as appeal cost growth order is O(m^2).",
        "params": {
          "_contributedTo": "Rulings that received contributions from contributor.",
          "_contributor": "The address whose rewards to withdraw.",
          "_questionID": "Identifier of the Realitio question, casted to uint. This also serves as the local identifier in this contract."
        }
      },
      "withdrawFeesAndRewardsForMultipleRulings(uint256,address,uint256,uint256[])": {
        "details": "Allows to withdraw any reimbursable fees or rewards after the dispute gets solved. For multiple ruling options at once.  This function has O(n) time complexity where n is number of ruling options contributed by given user.  It is safe to assume n is always less than 3 as it does not make sense to contribute to different ruling options in the same round, so it will rarely be greater than 1.",
        "params": {
          "_contributedTo": "Rulings that received contributions from contributor.",
          "_contributor": "The address whose rewards to withdraw.",
          "_questionID": "Identifier of the Realitio question, casted to uint. This also serves as the local identifier in this contract.",
          "_roundNumber": "The number of the round caller wants to withdraw from."
        }
      }
    },
    "title": "Realitio_v2_0_ArbitratorWithAppeals",
    "version": 1
  },
  "userdoc": {
    "kind": "user",
    "methods": {
      "changeGovernor(address)": {
        "notice": "Changes the address of the governor."
      }
    },
    "version": 1
  }
}